{
  "contractName": "CarrierDotInfo",
  "abi": [
    {
      "constant": true,
      "inputs": [],
      "name": "managingContract",
      "outputs": [
        {
          "name": "",
          "type": "address"
        }
      ],
      "payable": false,
      "stateMutability": "view",
      "type": "function"
    },
    {
      "constant": true,
      "inputs": [],
      "name": "streetAddress",
      "outputs": [
        {
          "name": "",
          "type": "string"
        }
      ],
      "payable": false,
      "stateMutability": "view",
      "type": "function"
    },
    {
      "constant": true,
      "inputs": [],
      "name": "streetPhone",
      "outputs": [
        {
          "name": "",
          "type": "string"
        }
      ],
      "payable": false,
      "stateMutability": "view",
      "type": "function"
    },
    {
      "constant": true,
      "inputs": [],
      "name": "usDotNumber",
      "outputs": [
        {
          "name": "",
          "type": "string"
        }
      ],
      "payable": false,
      "stateMutability": "view",
      "type": "function"
    },
    {
      "constant": true,
      "inputs": [],
      "name": "dbaName",
      "outputs": [
        {
          "name": "",
          "type": "string"
        }
      ],
      "payable": false,
      "stateMutability": "view",
      "type": "function"
    },
    {
      "constant": true,
      "inputs": [],
      "name": "mailingAddress",
      "outputs": [
        {
          "name": "",
          "type": "string"
        }
      ],
      "payable": false,
      "stateMutability": "view",
      "type": "function"
    },
    {
      "constant": true,
      "inputs": [],
      "name": "legalName",
      "outputs": [
        {
          "name": "",
          "type": "string"
        }
      ],
      "payable": false,
      "stateMutability": "view",
      "type": "function"
    },
    {
      "constant": true,
      "inputs": [],
      "name": "mailingPhone",
      "outputs": [
        {
          "name": "",
          "type": "string"
        }
      ],
      "payable": false,
      "stateMutability": "view",
      "type": "function"
    },
    {
      "inputs": [],
      "payable": false,
      "stateMutability": "nonpayable",
      "type": "constructor"
    },
    {
      "constant": false,
      "inputs": [
        {
          "name": "_managingContract",
          "type": "address"
        }
      ],
      "name": "setManagingContract",
      "outputs": [],
      "payable": false,
      "stateMutability": "nonpayable",
      "type": "function"
    },
    {
      "constant": false,
      "inputs": [
        {
          "name": "_usDotNumber",
          "type": "string"
        }
      ],
      "name": "setUsDotNumber",
      "outputs": [],
      "payable": false,
      "stateMutability": "nonpayable",
      "type": "function"
    },
    {
      "constant": false,
      "inputs": [
        {
          "name": "_dbaName",
          "type": "string"
        }
      ],
      "name": "setDbaName",
      "outputs": [],
      "payable": false,
      "stateMutability": "nonpayable",
      "type": "function"
    },
    {
      "constant": false,
      "inputs": [
        {
          "name": "_legalName",
          "type": "string"
        }
      ],
      "name": "setLegalName",
      "outputs": [],
      "payable": false,
      "stateMutability": "nonpayable",
      "type": "function"
    },
    {
      "constant": false,
      "inputs": [
        {
          "name": "_streetAddress",
          "type": "string"
        }
      ],
      "name": "setStreetAddress",
      "outputs": [],
      "payable": false,
      "stateMutability": "nonpayable",
      "type": "function"
    },
    {
      "constant": false,
      "inputs": [
        {
          "name": "_streetPhone",
          "type": "string"
        }
      ],
      "name": "setStreetPhone",
      "outputs": [],
      "payable": false,
      "stateMutability": "nonpayable",
      "type": "function"
    },
    {
      "constant": false,
      "inputs": [
        {
          "name": "_mailingAddress",
          "type": "string"
        }
      ],
      "name": "setMailingAddress",
      "outputs": [],
      "payable": false,
      "stateMutability": "nonpayable",
      "type": "function"
    },
    {
      "constant": false,
      "inputs": [
        {
          "name": "_mailingPhone",
          "type": "string"
        }
      ],
      "name": "setMailingPhone",
      "outputs": [],
      "payable": false,
      "stateMutability": "nonpayable",
      "type": "function"
    }
  ],
  "bytecode": "0x6060604052341561000f57600080fd5b60008054600160a060020a033316600160a060020a031990911617905561094f8061003b6000396000f3006060604052600436106100e55763ffffffff7c01000000000000000000000000000000000000000000000000000000006000350416630206f64981146100ea5780632ca0af381461013d5780632dadc44f1461018e5780632ea9cccb146101df5780633d18b5221461021b57806347d905761461026c5780634f121123146102f6578063669875ca14610322578063671d1f85146103355780637d2b5d971461034857806391b21ae614610399578063ae42f151146103ac578063b2541564146103bf578063e0dce2ac146103d2578063fddb8f7d14610423578063feb97ccc14610474575b600080fd5b34156100f557600080fd5b61013b60046024813581810190830135806020601f8201819004810201604051908101604052818152929190602084018383808284375094965061048795505050505050565b005b341561014857600080fd5b61013b60046024813581810190830135806020601f8201819004810201604051908101604052818152929190602084018383808284375094965061049e95505050505050565b341561019957600080fd5b61013b60046024813581810190830135806020601f820181900481020160405190810160405281815292919060208401838380828437509496506104b195505050505050565b34156101ea57600080fd5b6101f26104c4565b60405173ffffffffffffffffffffffffffffffffffffffff909116815260200160405180910390f35b341561022657600080fd5b61013b60046024813581810190830135806020601f820181900481020160405190810160405281815292919060208401838380828437509496506104e095505050505050565b341561027757600080fd5b61027f6104f3565b60405160208082528190810183818151815260200191508051906020019080838360005b838110156102bb5780820151838201526020016102a3565b50505050905090810190601f1680156102e85780820380516001836020036101000a031916815260200191505b509250505060405180910390f35b341561030157600080fd5b61013b73ffffffffffffffffffffffffffffffffffffffff60043516610591565b341561032d57600080fd5b61027f6105cd565b341561034057600080fd5b61027f610638565b341561035357600080fd5b61013b60046024813581810190830135806020601f820181900481020160405190810160405281815292919060208401838380828437509496506106a395505050505050565b34156103a457600080fd5b61027f6106b6565b34156103b757600080fd5b61027f610721565b34156103ca57600080fd5b61027f61078c565b34156103dd57600080fd5b61013b60046024813581810190830135806020601f820181900481020160405190810160405281815292919060208401838380828437509496506107f795505050505050565b341561042e57600080fd5b61013b60046024813581810190830135806020601f8201819004810201604051908101604052818152929190602084018383808284375094965061080a95505050505050565b341561047f57600080fd5b61027f61081d565b600481805161049a929160200190610888565b5050565b600281805161049a929160200190610888565b600181805161049a929160200190610888565b60005473ffffffffffffffffffffffffffffffffffffffff1681565b600681805161049a929160200190610888565b60048054600181600116156101000203166002900480601f0160208091040260200160405190810160405280929190818152602001828054600181600116156101000203166002900480156105895780601f1061055e57610100808354040283529160200191610589565b820191906000526020600020905b81548152906001019060200180831161056c57829003601f168201915b505050505081565b6000805473ffffffffffffffffffffffffffffffffffffffff191673ffffffffffffffffffffffffffffffffffffffff92909216919091179055565b60058054600181600116156101000203166002900480601f0160208091040260200160405190810160405280929190818152602001828054600181600116156101000203166002900480156105895780601f1061055e57610100808354040283529160200191610589565b60018054600181600116156101000203166002900480601f0160208091040260200160405190810160405280929190818152602001828054600181600116156101000203166002900480156105895780601f1061055e57610100808354040283529160200191610589565b600781805161049a929160200190610888565b60028054600181600116156101000203166002900480601f0160208091040260200160405190810160405280929190818152602001828054600181600116156101000203166002900480156105895780601f1061055e57610100808354040283529160200191610589565b60068054600181600116156101000203166002900480601f0160208091040260200160405190810160405280929190818152602001828054600181600116156101000203166002900480156105895780601f1061055e57610100808354040283529160200191610589565b60038054600181600116156101000203166002900480601f0160208091040260200160405190810160405280929190818152602001828054600181600116156101000203166002900480156105895780601f1061055e57610100808354040283529160200191610589565b600381805161049a929160200190610888565b600581805161049a929160200190610888565b60078054600181600116156101000203166002900480601f0160208091040260200160405190810160405280929190818152602001828054600181600116156101000203166002900480156105895780601f1061055e57610100808354040283529160200191610589565b828054600181600116156101000203166002900490600052602060002090601f016020900481019282601f106108c957805160ff19168380011785556108f6565b828001600101855582156108f6579182015b828111156108f65782518255916020019190600101906108db565b50610902929150610906565b5090565b61092091905b80821115610902576000815560010161090c565b905600a165627a7a7230582037a0d81dd23852a07234d6c747488f52cb12b3d1f4c0d1300f31ea3213b83b3f0029",
  "source": "pragma solidity ^0.4.17;\n\n\ncontract CarrierDotInfo {\n\n    // \"dot census\" -- dot licensing and insurance can be another contract\n\n    address public managingContract;\n    string public usDotNumber;\n    string public dbaName;\n    string public legalName;\n    string public streetAddress;\n    string public streetPhone;\n    string public mailingAddress;\n    string public mailingPhone;\n\n    function CarrierDotInfo() public {\n        managingContract = msg.sender;\n    }\n\n    function setManagingContract(address _managingContract) public {\n        managingContract = _managingContract;\n    }\n    function setUsDotNumber(string _usDotNumber) public {\n        usDotNumber = _usDotNumber;\n    }\n    function setDbaName(string _dbaName) public {\n        dbaName = _dbaName;\n    }\n    function setLegalName(string _legalName) public {\n        legalName = _legalName;\n    }\n    function setStreetAddress(string _streetAddress) public {\n        streetAddress = _streetAddress;\n    }\n    function setStreetPhone(string _streetPhone) public {\n        streetPhone = _streetPhone;\n    }\n    function setMailingAddress(string _mailingAddress) public {\n        mailingAddress = _mailingAddress;\n    }\n    function setMailingPhone(string _mailingPhone) public {\n        mailingPhone = _mailingPhone;\n    }\n\n\n}",
  "sourcePath": "/Users/jantimpe/Documents/hackathon-react/contracts/CarrierDotInfo.sol",
  "compiler": {
    "name": "solc",
    "version": "0.4.19+commit.c4cbbb05.Emscripten.clang"
  },
  "schemaVersion": "2.0.0",
  "updatedAt": "2018-03-08T16:18:22.060Z"
}