{
  "contractName": "CarrierContact",
  "abi": [
    {
      "constant": true,
      "inputs": [],
      "name": "managingContract",
      "outputs": [
        {
          "name": "",
          "type": "address"
        }
      ],
      "payable": false,
      "stateMutability": "view",
      "type": "function"
    },
    {
      "constant": true,
      "inputs": [],
      "name": "jobTitle",
      "outputs": [
        {
          "name": "",
          "type": "string"
        }
      ],
      "payable": false,
      "stateMutability": "view",
      "type": "function"
    },
    {
      "constant": true,
      "inputs": [],
      "name": "firstName",
      "outputs": [
        {
          "name": "",
          "type": "string"
        }
      ],
      "payable": false,
      "stateMutability": "view",
      "type": "function"
    },
    {
      "constant": true,
      "inputs": [],
      "name": "contactType",
      "outputs": [
        {
          "name": "",
          "type": "string"
        }
      ],
      "payable": false,
      "stateMutability": "view",
      "type": "function"
    },
    {
      "constant": true,
      "inputs": [],
      "name": "email",
      "outputs": [
        {
          "name": "",
          "type": "string"
        }
      ],
      "payable": false,
      "stateMutability": "view",
      "type": "function"
    },
    {
      "constant": true,
      "inputs": [],
      "name": "phone",
      "outputs": [
        {
          "name": "",
          "type": "string"
        }
      ],
      "payable": false,
      "stateMutability": "view",
      "type": "function"
    },
    {
      "constant": true,
      "inputs": [],
      "name": "mobilePhone",
      "outputs": [
        {
          "name": "",
          "type": "string"
        }
      ],
      "payable": false,
      "stateMutability": "view",
      "type": "function"
    },
    {
      "constant": true,
      "inputs": [],
      "name": "lastName",
      "outputs": [
        {
          "name": "",
          "type": "string"
        }
      ],
      "payable": false,
      "stateMutability": "view",
      "type": "function"
    },
    {
      "constant": true,
      "inputs": [],
      "name": "fax",
      "outputs": [
        {
          "name": "",
          "type": "string"
        }
      ],
      "payable": false,
      "stateMutability": "view",
      "type": "function"
    },
    {
      "inputs": [
        {
          "name": "_firstName",
          "type": "string"
        },
        {
          "name": "_lastName",
          "type": "string"
        },
        {
          "name": "_jobTitle",
          "type": "string"
        },
        {
          "name": "_contactType",
          "type": "string"
        },
        {
          "name": "_phone",
          "type": "string"
        }
      ],
      "payable": false,
      "stateMutability": "nonpayable",
      "type": "constructor"
    },
    {
      "constant": false,
      "inputs": [
        {
          "name": "_firstName",
          "type": "string"
        },
        {
          "name": "_lastName",
          "type": "string"
        }
      ],
      "name": "setEverything",
      "outputs": [],
      "payable": false,
      "stateMutability": "nonpayable",
      "type": "function"
    },
    {
      "constant": false,
      "inputs": [
        {
          "name": "_val",
          "type": "string"
        }
      ],
      "name": "set_firstName",
      "outputs": [],
      "payable": false,
      "stateMutability": "nonpayable",
      "type": "function"
    },
    {
      "constant": false,
      "inputs": [
        {
          "name": "_val",
          "type": "string"
        }
      ],
      "name": "set_lastName",
      "outputs": [],
      "payable": false,
      "stateMutability": "nonpayable",
      "type": "function"
    },
    {
      "constant": false,
      "inputs": [
        {
          "name": "_val",
          "type": "string"
        }
      ],
      "name": "set_jobTitle",
      "outputs": [],
      "payable": false,
      "stateMutability": "nonpayable",
      "type": "function"
    },
    {
      "constant": false,
      "inputs": [
        {
          "name": "_val",
          "type": "string"
        }
      ],
      "name": "set_contactType",
      "outputs": [],
      "payable": false,
      "stateMutability": "nonpayable",
      "type": "function"
    },
    {
      "constant": false,
      "inputs": [
        {
          "name": "_val",
          "type": "string"
        }
      ],
      "name": "set_phone",
      "outputs": [],
      "payable": false,
      "stateMutability": "nonpayable",
      "type": "function"
    },
    {
      "constant": false,
      "inputs": [
        {
          "name": "_val",
          "type": "string"
        }
      ],
      "name": "set_mobilePhone",
      "outputs": [],
      "payable": false,
      "stateMutability": "nonpayable",
      "type": "function"
    },
    {
      "constant": false,
      "inputs": [
        {
          "name": "_val",
          "type": "string"
        }
      ],
      "name": "set_fax",
      "outputs": [],
      "payable": false,
      "stateMutability": "nonpayable",
      "type": "function"
    },
    {
      "constant": false,
      "inputs": [
        {
          "name": "_val",
          "type": "string"
        }
      ],
      "name": "set_email",
      "outputs": [],
      "payable": false,
      "stateMutability": "nonpayable",
      "type": "function"
    }
  ],
  "bytecode": "0x606060405234156200001057600080fd5b60405162000da138038062000da18339810160405280805182019190602001805182019190602001805182019190602001805182019190602001805160008054600160a060020a03191633600160a060020a0316179055919091019050600185805162000082929160200190620000e6565b50600284805162000098929160200190620000e6565b506003838051620000ae929160200190620000e6565b506004828051620000c4929160200190620000e6565b506005818051620000da929160200190620000e6565b5050505050506200018b565b828054600181600116156101000203166002900490600052602060002090601f016020900481019282601f106200012957805160ff191683800117855562000159565b8280016001018555821562000159579182015b82811115620001595782518255916020019190600101906200013c565b50620001679291506200016b565b5090565b6200018891905b8082111562000167576000815560010162000172565b90565b610c06806200019b6000396000f3006060604052600436106100fb5763ffffffff7c01000000000000000000000000000000000000000000000000000000006000350416631bc7246a81146101005780632690a409146101535780632ea9cccb146101a45780633d9c899b146101e05780633ff4b938146102315780634589fe0c146102bb5780634a1e7082146102ce5780635d3270b41461031f5780637d0f786014610332578063820e93f5146103c55780638c45eb30146103d85780639284f4971461042957806396f2fa8b1461043c5780639ab03dcb1461044f5780639d49df9c14610462578063bd5e4e83146104b3578063d4705ef614610504578063ef690ad414610555575b600080fd5b341561010b57600080fd5b61015160046024813581810190830135806020601f8201819004810201604051908101604052818152929190602084018383808284375094965061056895505050505050565b005b341561015e57600080fd5b61015160046024813581810190830135806020601f820181900481020160405190810160405281815292919060208401838380828437509496506105a795505050505050565b34156101af57600080fd5b6101b76105e2565b60405173ffffffffffffffffffffffffffffffffffffffff909116815260200160405180910390f35b34156101eb57600080fd5b61015160046024813581810190830135806020601f820181900481020160405190810160405281815292919060208401838380828437509496506105fe95505050505050565b341561023c57600080fd5b610244610639565b60405160208082528190810183818151815260200191508051906020019080838360005b83811015610280578082015183820152602001610268565b50505050905090810190601f1680156102ad5780820380516001836020036101000a031916815260200191505b509250505060405180910390f35b34156102c657600080fd5b6102446106d7565b34156102d957600080fd5b61015160046024813581810190830135806020601f8201819004810201604051908101604052818152929190602084018383808284375094965061074295505050505050565b341561032a57600080fd5b61024461077d565b341561033d57600080fd5b61015160046024813581810190830135806020601f8201819004810201604051908101604052818152929190602084018383808284378201915050505050509190803590602001908201803590602001908080601f0160208091040260200160405190810160405281815292919060208401838380828437509496506107e895505050505050565b34156103d057600080fd5b61024461083c565b34156103e357600080fd5b61015160046024813581810190830135806020601f820181900481020160405190810160405281815292919060208401838380828437509496506108a795505050505050565b341561043457600080fd5b6102446108e2565b341561044757600080fd5b61024461094d565b341561045a57600080fd5b6102446109b8565b341561046d57600080fd5b61015160046024813581810190830135806020601f82018190048102016040519081016040528181529291906020840183838082843750949650610a2395505050505050565b34156104be57600080fd5b61015160046024813581810190830135806020601f82018190048102016040519081016040528181529291906020840183838082843750949650610a5e95505050505050565b341561050f57600080fd5b61015160046024813581810190830135806020601f82018190048102016040519081016040528181529291906020840183838082843750949650610a9995505050505050565b341561056057600080fd5b610244610ad4565b6000543373ffffffffffffffffffffffffffffffffffffffff90811691161461059057600080fd5b60028180516105a3929160200190610b3f565b5050565b6000543373ffffffffffffffffffffffffffffffffffffffff9081169116146105cf57600080fd5b60048180516105a3929160200190610b3f565b60005473ffffffffffffffffffffffffffffffffffffffff1681565b6000543373ffffffffffffffffffffffffffffffffffffffff90811691161461062657600080fd5b60058180516105a3929160200190610b3f565b60038054600181600116156101000203166002900480601f0160208091040260200160405190810160405280929190818152602001828054600181600116156101000203166002900480156106cf5780601f106106a4576101008083540402835291602001916106cf565b820191906000526020600020905b8154815290600101906020018083116106b257829003601f168201915b505050505081565b60018054600181600116156101000203166002900480601f0160208091040260200160405190810160405280929190818152602001828054600181600116156101000203166002900480156106cf5780601f106106a4576101008083540402835291602001916106cf565b6000543373ffffffffffffffffffffffffffffffffffffffff90811691161461076a57600080fd5b60088180516105a3929160200190610b3f565b60048054600181600116156101000203166002900480601f0160208091040260200160405190810160405280929190818152602001828054600181600116156101000203166002900480156106cf5780601f106106a4576101008083540402835291602001916106cf565b6000543373ffffffffffffffffffffffffffffffffffffffff90811691161461081057600080fd5b6001828051610823929160200190610b3f565b506002818051610837929160200190610b3f565b505050565b60088054600181600116156101000203166002900480601f0160208091040260200160405190810160405280929190818152602001828054600181600116156101000203166002900480156106cf5780601f106106a4576101008083540402835291602001916106cf565b6000543373ffffffffffffffffffffffffffffffffffffffff9081169116146108cf57600080fd5b60078180516105a3929160200190610b3f565b60058054600181600116156101000203166002900480601f0160208091040260200160405190810160405280929190818152602001828054600181600116156101000203166002900480156106cf5780601f106106a4576101008083540402835291602001916106cf565b60068054600181600116156101000203166002900480601f0160208091040260200160405190810160405280929190818152602001828054600181600116156101000203166002900480156106cf5780601f106106a4576101008083540402835291602001916106cf565b60028054600181600116156101000203166002900480601f0160208091040260200160405190810160405280929190818152602001828054600181600116156101000203166002900480156106cf5780601f106106a4576101008083540402835291602001916106cf565b6000543373ffffffffffffffffffffffffffffffffffffffff908116911614610a4b57600080fd5b60038180516105a3929160200190610b3f565b6000543373ffffffffffffffffffffffffffffffffffffffff908116911614610a8657600080fd5b60018180516105a3929160200190610b3f565b6000543373ffffffffffffffffffffffffffffffffffffffff908116911614610ac157600080fd5b60068180516105a3929160200190610b3f565b60078054600181600116156101000203166002900480601f0160208091040260200160405190810160405280929190818152602001828054600181600116156101000203166002900480156106cf5780601f106106a4576101008083540402835291602001916106cf565b828054600181600116156101000203166002900490600052602060002090601f016020900481019282601f10610b8057805160ff1916838001178555610bad565b82800160010185558215610bad579182015b82811115610bad578251825591602001919060010190610b92565b50610bb9929150610bbd565b5090565b610bd791905b80821115610bb95760008155600101610bc3565b905600a165627a7a723058209ab3b72bd96931fadf3559d2d58cdd1cafb5e940e4a6796f8fd0f1363ad9e5c10029",
  "source": "pragma solidity ^0.4.17;\n\n\ncontract CarrierContact {\n\n    address public managingContract;\n    string public firstName;\n    string public lastName;\n    string public jobTitle;\n    string public contactType;\n    string public phone;\n    string public mobilePhone;\n    string public fax;\n    string public email;\n\n\n    function CarrierContact(\n        string _firstName,\n        string _lastName,\n        string _jobTitle,\n        string _contactType,\n        string _phone\n    ) public \n    {\n        managingContract = msg.sender;\n        firstName = _firstName;\n        lastName = _lastName;\n        jobTitle = _jobTitle;\n        contactType = _contactType;\n        phone = _phone;\n    }\n\n    function setEverything(string _firstName, string _lastName) public {\n        require(msg.sender == managingContract);\n        firstName = _firstName;\n        lastName = _lastName;\n    }\n\n    function set_firstName(string _val) public {\n        require(msg.sender == managingContract);\n        firstName = _val;\n    }\n\n    function set_lastName(string _val) public {\n        require(msg.sender == managingContract);\n        lastName = _val;\n    }\n\n    function set_jobTitle(string _val) public {\n        require(msg.sender == managingContract);\n        jobTitle = _val;\n    }\n\n    function set_contactType(string _val) public {\n        require(msg.sender == managingContract);\n        contactType = _val;\n    }\n\n\n    function set_phone(string _val) public {\n        require(msg.sender == managingContract);\n        phone = _val;\n    }\n\n    function set_mobilePhone(string _val) public {\n        require(msg.sender == managingContract);\n        mobilePhone = _val;\n    }\n\n    function set_fax(string _val) public {\n        require(msg.sender == managingContract);\n        fax = _val;\n    }\n\n    function set_email(string _val) public {\n        require(msg.sender == managingContract);\n        email = _val;\n    }\n\n}",
  "sourcePath": "/Users/jantimpe/Documents/hackathon-react/contracts/CarrierContact.sol",
  "compiler": {
    "name": "solc",
    "version": "0.4.19+commit.c4cbbb05.Emscripten.clang"
  },
  "schemaVersion": "2.0.0",
  "updatedAt": "2018-03-08T16:18:22.062Z"
}