{
  "contractName": "CarrierEquipment",
  "abi": [
    {
      "constant": true,
      "inputs": [],
      "name": "quantity",
      "outputs": [
        {
          "name": "",
          "type": "uint256"
        }
      ],
      "payable": false,
      "stateMutability": "view",
      "type": "function"
    },
    {
      "constant": true,
      "inputs": [],
      "name": "description",
      "outputs": [
        {
          "name": "",
          "type": "string"
        }
      ],
      "payable": false,
      "stateMutability": "view",
      "type": "function"
    },
    {
      "constant": true,
      "inputs": [],
      "name": "identifier",
      "outputs": [
        {
          "name": "",
          "type": "string"
        }
      ],
      "payable": false,
      "stateMutability": "view",
      "type": "function"
    },
    {
      "constant": true,
      "inputs": [],
      "name": "owner",
      "outputs": [
        {
          "name": "",
          "type": "address"
        }
      ],
      "payable": false,
      "stateMutability": "view",
      "type": "function"
    },
    {
      "inputs": [],
      "payable": false,
      "stateMutability": "nonpayable",
      "type": "constructor"
    },
    {
      "constant": false,
      "inputs": [
        {
          "name": "_val",
          "type": "string"
        }
      ],
      "name": "set_identifier",
      "outputs": [],
      "payable": false,
      "stateMutability": "nonpayable",
      "type": "function"
    },
    {
      "constant": false,
      "inputs": [
        {
          "name": "_val",
          "type": "string"
        }
      ],
      "name": "set_description",
      "outputs": [],
      "payable": false,
      "stateMutability": "nonpayable",
      "type": "function"
    },
    {
      "constant": false,
      "inputs": [
        {
          "name": "_val",
          "type": "uint256"
        }
      ],
      "name": "set_quantity",
      "outputs": [],
      "payable": false,
      "stateMutability": "nonpayable",
      "type": "function"
    }
  ],
  "bytecode": "0x6060604052341561000f57600080fd5b60008054600160a060020a033316600160a060020a03199091161790556104d48061003b6000396000f3006060604052600436106100825763ffffffff7c01000000000000000000000000000000000000000000000000000000006000350416630f9cf171811461008757806317fc45e2146100da5780637284e416146100ff5780637998a1c4146101895780638da5cb5b1461019c578063992e94fd146101d8578063a36101a9146101ee575b600080fd5b341561009257600080fd5b6100d860046024813581810190830135806020601f8201819004810201604051908101604052818152929190602084018383808284375094965061023f95505050505050565b005b34156100e557600080fd5b6100ed61027e565b60405190815260200160405180910390f35b341561010a57600080fd5b610112610284565b60405160208082528190810183818151815260200191508051906020019080838360005b8381101561014e578082015183820152602001610136565b50505050905090810190601f16801561017b5780820380516001836020036101000a031916815260200191505b509250505060405180910390f35b341561019457600080fd5b610112610322565b34156101a757600080fd5b6101af61038d565b60405173ffffffffffffffffffffffffffffffffffffffff909116815260200160405180910390f35b34156101e357600080fd5b6100d86004356103a9565b34156101f957600080fd5b6100d860046024813581810190830135806020601f820181900481020160405190810160405281815292919060208401838380828437509496506103d695505050505050565b6000543373ffffffffffffffffffffffffffffffffffffffff90811691161461026757600080fd5b600181805161027a92916020019061040d565b5050565b60035481565b60028054600181600116156101000203166002900480601f01602080910402602001604051908101604052809291908181526020018280546001816001161561010002031660029004801561031a5780601f106102ef5761010080835404028352916020019161031a565b820191906000526020600020905b8154815290600101906020018083116102fd57829003601f168201915b505050505081565b60018054600181600116156101000203166002900480601f01602080910402602001604051908101604052809291908181526020018280546001816001161561010002031660029004801561031a5780601f106102ef5761010080835404028352916020019161031a565b60005473ffffffffffffffffffffffffffffffffffffffff1681565b6000543373ffffffffffffffffffffffffffffffffffffffff9081169116146103d157600080fd5b600355565b6000543373ffffffffffffffffffffffffffffffffffffffff9081169116146103fe57600080fd5b600281805161027a9291602001905b828054600181600116156101000203166002900490600052602060002090601f016020900481019282601f1061044e57805160ff191683800117855561047b565b8280016001018555821561047b579182015b8281111561047b578251825591602001919060010190610460565b5061048792915061048b565b5090565b6104a591905b808211156104875760008155600101610491565b905600a165627a7a7230582031fcaacf6b138023aeb0f54a504bf991ee2b2952b4a0d2187790a84af4a026a50029",
  "source": "pragma solidity ^0.4.17;\n\ncontract CarrierEquipment {\n\n    address public owner;\n    string public identifier;\n    string public description;\n    uint public quantity;\n\n    function CarrierEquipment() public {\n        owner = msg.sender;\n    }\n\n    function set_identifier(string _val) public {\n        require(msg.sender == owner);\n        identifier = _val;\n    }\n\n    function set_description(string _val) public {\n        require(msg.sender == owner);\n        description = _val;\n    }\n    function set_quantity(uint _val) public {\n        require(msg.sender == owner);\n        quantity = _val;\n    }\n\n}",
  "sourcePath": "/Users/jantimpe/Documents/hackathon-react/contracts/CarrierEquipment.sol",
  "compiler": {
    "name": "solc",
    "version": "0.4.19+commit.c4cbbb05.Emscripten.clang"
  },
  "schemaVersion": "2.0.0",
  "updatedAt": "2018-03-08T16:18:22.061Z"
}