{
  "contractName": "Carrier",
  "abi": [
    {
      "constant": true,
      "inputs": [
        {
          "name": "",
          "type": "uint256"
        }
      ],
      "name": "equipment",
      "outputs": [
        {
          "name": "",
          "type": "address"
        }
      ],
      "payable": false,
      "stateMutability": "view",
      "type": "function"
    },
    {
      "constant": true,
      "inputs": [],
      "name": "owner",
      "outputs": [
        {
          "name": "",
          "type": "address"
        }
      ],
      "payable": false,
      "stateMutability": "view",
      "type": "function"
    },
    {
      "constant": true,
      "inputs": [],
      "name": "dot_information",
      "outputs": [
        {
          "name": "",
          "type": "address"
        }
      ],
      "payable": false,
      "stateMutability": "view",
      "type": "function"
    },
    {
      "constant": true,
      "inputs": [
        {
          "name": "",
          "type": "uint256"
        }
      ],
      "name": "contacts",
      "outputs": [
        {
          "name": "",
          "type": "address"
        }
      ],
      "payable": false,
      "stateMutability": "view",
      "type": "function"
    },
    {
      "inputs": [],
      "payable": false,
      "stateMutability": "nonpayable",
      "type": "constructor"
    },
    {
      "constant": false,
      "inputs": [
        {
          "name": "_firstName",
          "type": "string"
        },
        {
          "name": "_lastName",
          "type": "string"
        },
        {
          "name": "_jobTitle",
          "type": "string"
        },
        {
          "name": "_contactType",
          "type": "string"
        },
        {
          "name": "_phone",
          "type": "string"
        }
      ],
      "name": "addContact",
      "outputs": [],
      "payable": false,
      "stateMutability": "nonpayable",
      "type": "function"
    },
    {
      "constant": true,
      "inputs": [],
      "name": "getContacts",
      "outputs": [
        {
          "name": "",
          "type": "address[]"
        }
      ],
      "payable": false,
      "stateMutability": "view",
      "type": "function"
    },
    {
      "constant": false,
      "inputs": [
        {
          "name": "_info",
          "type": "address"
        }
      ],
      "name": "addDotInformation",
      "outputs": [],
      "payable": false,
      "stateMutability": "nonpayable",
      "type": "function"
    },
    {
      "constant": false,
      "inputs": [
        {
          "name": "_equip",
          "type": "address"
        }
      ],
      "name": "addCarrierEquipment",
      "outputs": [],
      "payable": false,
      "stateMutability": "nonpayable",
      "type": "function"
    }
  ],
  "bytecode": "0x6060604052341561000f57600080fd5b60008054600160a060020a033316600160a060020a031990911617905561153d8061003b6000396000f30060606040526004361061008d5763ffffffff7c010000000000000000000000000000000000000000000000000000000060003504166339fdad3c811461009257806365b817e6146101ed5780636f1b93931461021f5780638da5cb5b1461023e578063db920b7714610251578063dcca8fc5146102b7578063e0f478cb146102ca578063ea66ddee146102e0575b600080fd5b341561009d57600080fd5b6101eb60046024813581810190830135806020601f8201819004810201604051908101604052818152929190602084018383808284378201915050505050509190803590602001908201803590602001908080601f01602080910402602001604051908101604052818152929190602084018383808284378201915050505050509190803590602001908201803590602001908080601f01602080910402602001604051908101604052818152929190602084018383808284378201915050505050509190803590602001908201803590602001908080601f01602080910402602001604051908101604052818152929190602084018383808284378201915050505050509190803590602001908201803590602001908080601f0160208091040260200160405190810160405281815292919060208401838380828437509496506102ff95505050505050565b005b34156101f857600080fd5b61020360043561059a565b604051600160a060020a03909116815260200160405180910390f35b341561022a57600080fd5b6101eb600160a060020a03600435166105c2565b341561024957600080fd5b610203610628565b341561025c57600080fd5b610264610637565b60405160208082528190810183818151815260200191508051906020019060200280838360005b838110156102a357808201518382015260200161028b565b505050509050019250505060405180910390f35b34156102c257600080fd5b6102036106a0565b34156102d557600080fd5b6102036004356106af565b34156102eb57600080fd5b6101eb600160a060020a03600435166106bd565b60005433600160a060020a0390811691161461031a57600080fd5b600280546001810161032c8382610707565b916000526020600020900160008787878787610346610730565b80806020018060200180602001806020018060200186810386528b818151815260200191508051906020019080838360005b83811015610390578082015183820152602001610378565b50505050905090810190601f1680156103bd5780820380516001836020036101000a031916815260200191505b5086810385528a818151815260200191508051906020019080838360005b838110156103f35780820151838201526020016103db565b50505050905090810190601f1680156104205780820380516001836020036101000a031916815260200191505b50868103845289818151815260200191508051906020019080838360005b8381101561045657808201518382015260200161043e565b50505050905090810190601f1680156104835780820380516001836020036101000a031916815260200191505b50868103835288818151815260200191508051906020019080838360005b838110156104b95780820151838201526020016104a1565b50505050905090810190601f1680156104e65780820380516001836020036101000a031916815260200191505b50868103825287818151815260200191508051906020019080838360005b8381101561051c578082015183820152602001610504565b50505050905090810190601f1680156105495780820380516001836020036101000a031916815260200191505b509a5050505050505050505050604051809103906000f080151561056c57600080fd5b909190916101000a815481600160a060020a030219169083600160a060020a03160217905550505050505050565b60038054829081106105a857fe5b600091825260209091200154600160a060020a0316905081565b60005433600160a060020a039081169116146105dd57600080fd5b60038054600181016105ef8382610707565b506000918252602090912001805473ffffffffffffffffffffffffffffffffffffffff1916600160a060020a0392909216919091179055565b600054600160a060020a031681565b61063f610740565b600280548060200260200160405190810160405280929190818152602001828054801561069557602002820191906000526020600020905b8154600160a060020a03168152600190910190602001808311610677575b505050505090505b90565b600154600160a060020a031681565b60028054829081106105a857fe5b60005433600160a060020a039081169116146106d857600080fd5b6001805473ffffffffffffffffffffffffffffffffffffffff1916600160a060020a0392909216919091179055565b81548183558181151161072b5760008381526020902061072b918101908301610752565b505050565b604051610da18061077183390190565b60206040519081016040526000815290565b61069d91905b8082111561076c5760008155600101610758565b50905600606060405234156200001057600080fd5b60405162000da138038062000da18339810160405280805182019190602001805182019190602001805182019190602001805182019190602001805160008054600160a060020a03191633600160a060020a0316179055919091019050600185805162000082929160200190620000e6565b50600284805162000098929160200190620000e6565b506003838051620000ae929160200190620000e6565b506004828051620000c4929160200190620000e6565b506005818051620000da929160200190620000e6565b5050505050506200018b565b828054600181600116156101000203166002900490600052602060002090601f016020900481019282601f106200012957805160ff191683800117855562000159565b8280016001018555821562000159579182015b82811115620001595782518255916020019190600101906200013c565b50620001679291506200016b565b5090565b6200018891905b8082111562000167576000815560010162000172565b90565b610c06806200019b6000396000f3006060604052600436106100fb5763ffffffff7c01000000000000000000000000000000000000000000000000000000006000350416631bc7246a81146101005780632690a409146101535780632ea9cccb146101a45780633d9c899b146101e05780633ff4b938146102315780634589fe0c146102bb5780634a1e7082146102ce5780635d3270b41461031f5780637d0f786014610332578063820e93f5146103c55780638c45eb30146103d85780639284f4971461042957806396f2fa8b1461043c5780639ab03dcb1461044f5780639d49df9c14610462578063bd5e4e83146104b3578063d4705ef614610504578063ef690ad414610555575b600080fd5b341561010b57600080fd5b61015160046024813581810190830135806020601f8201819004810201604051908101604052818152929190602084018383808284375094965061056895505050505050565b005b341561015e57600080fd5b61015160046024813581810190830135806020601f820181900481020160405190810160405281815292919060208401838380828437509496506105a795505050505050565b34156101af57600080fd5b6101b76105e2565b60405173ffffffffffffffffffffffffffffffffffffffff909116815260200160405180910390f35b34156101eb57600080fd5b61015160046024813581810190830135806020601f820181900481020160405190810160405281815292919060208401838380828437509496506105fe95505050505050565b341561023c57600080fd5b610244610639565b60405160208082528190810183818151815260200191508051906020019080838360005b83811015610280578082015183820152602001610268565b50505050905090810190601f1680156102ad5780820380516001836020036101000a031916815260200191505b509250505060405180910390f35b34156102c657600080fd5b6102446106d7565b34156102d957600080fd5b61015160046024813581810190830135806020601f8201819004810201604051908101604052818152929190602084018383808284375094965061074295505050505050565b341561032a57600080fd5b61024461077d565b341561033d57600080fd5b61015160046024813581810190830135806020601f8201819004810201604051908101604052818152929190602084018383808284378201915050505050509190803590602001908201803590602001908080601f0160208091040260200160405190810160405281815292919060208401838380828437509496506107e895505050505050565b34156103d057600080fd5b61024461083c565b34156103e357600080fd5b61015160046024813581810190830135806020601f820181900481020160405190810160405281815292919060208401838380828437509496506108a795505050505050565b341561043457600080fd5b6102446108e2565b341561044757600080fd5b61024461094d565b341561045a57600080fd5b6102446109b8565b341561046d57600080fd5b61015160046024813581810190830135806020601f82018190048102016040519081016040528181529291906020840183838082843750949650610a2395505050505050565b34156104be57600080fd5b61015160046024813581810190830135806020601f82018190048102016040519081016040528181529291906020840183838082843750949650610a5e95505050505050565b341561050f57600080fd5b61015160046024813581810190830135806020601f82018190048102016040519081016040528181529291906020840183838082843750949650610a9995505050505050565b341561056057600080fd5b610244610ad4565b6000543373ffffffffffffffffffffffffffffffffffffffff90811691161461059057600080fd5b60028180516105a3929160200190610b3f565b5050565b6000543373ffffffffffffffffffffffffffffffffffffffff9081169116146105cf57600080fd5b60048180516105a3929160200190610b3f565b60005473ffffffffffffffffffffffffffffffffffffffff1681565b6000543373ffffffffffffffffffffffffffffffffffffffff90811691161461062657600080fd5b60058180516105a3929160200190610b3f565b60038054600181600116156101000203166002900480601f0160208091040260200160405190810160405280929190818152602001828054600181600116156101000203166002900480156106cf5780601f106106a4576101008083540402835291602001916106cf565b820191906000526020600020905b8154815290600101906020018083116106b257829003601f168201915b505050505081565b60018054600181600116156101000203166002900480601f0160208091040260200160405190810160405280929190818152602001828054600181600116156101000203166002900480156106cf5780601f106106a4576101008083540402835291602001916106cf565b6000543373ffffffffffffffffffffffffffffffffffffffff90811691161461076a57600080fd5b60088180516105a3929160200190610b3f565b60048054600181600116156101000203166002900480601f0160208091040260200160405190810160405280929190818152602001828054600181600116156101000203166002900480156106cf5780601f106106a4576101008083540402835291602001916106cf565b6000543373ffffffffffffffffffffffffffffffffffffffff90811691161461081057600080fd5b6001828051610823929160200190610b3f565b506002818051610837929160200190610b3f565b505050565b60088054600181600116156101000203166002900480601f0160208091040260200160405190810160405280929190818152602001828054600181600116156101000203166002900480156106cf5780601f106106a4576101008083540402835291602001916106cf565b6000543373ffffffffffffffffffffffffffffffffffffffff9081169116146108cf57600080fd5b60078180516105a3929160200190610b3f565b60058054600181600116156101000203166002900480601f0160208091040260200160405190810160405280929190818152602001828054600181600116156101000203166002900480156106cf5780601f106106a4576101008083540402835291602001916106cf565b60068054600181600116156101000203166002900480601f0160208091040260200160405190810160405280929190818152602001828054600181600116156101000203166002900480156106cf5780601f106106a4576101008083540402835291602001916106cf565b60028054600181600116156101000203166002900480601f0160208091040260200160405190810160405280929190818152602001828054600181600116156101000203166002900480156106cf5780601f106106a4576101008083540402835291602001916106cf565b6000543373ffffffffffffffffffffffffffffffffffffffff908116911614610a4b57600080fd5b60038180516105a3929160200190610b3f565b6000543373ffffffffffffffffffffffffffffffffffffffff908116911614610a8657600080fd5b60018180516105a3929160200190610b3f565b6000543373ffffffffffffffffffffffffffffffffffffffff908116911614610ac157600080fd5b60068180516105a3929160200190610b3f565b60078054600181600116156101000203166002900480601f0160208091040260200160405190810160405280929190818152602001828054600181600116156101000203166002900480156106cf5780601f106106a4576101008083540402835291602001916106cf565b828054600181600116156101000203166002900490600052602060002090601f016020900481019282601f10610b8057805160ff1916838001178555610bad565b82800160010185558215610bad579182015b82811115610bad578251825591602001919060010190610b92565b50610bb9929150610bbd565b5090565b610bd791905b80821115610bb95760008155600101610bc3565b905600a165627a7a723058209ab3b72bd96931fadf3559d2d58cdd1cafb5e940e4a6796f8fd0f1363ad9e5c10029a165627a7a7230582065b99fa12fb906f3dfe0fd77440433f2462e13356547e803cdde8629d9404a5d0029",
  "source": "pragma solidity ^0.4.17;\nimport \"./CarrierContact.sol\";\nimport \"./CarrierDotInfo.sol\";\nimport \"./CarrierEquipment.sol\";\n\ncontract Carrier {\n\n    address public owner;\n    address public dot_information;\n    address[] public contacts;\n    address[] public equipment;\n\n    function Carrier() public {\n        owner = msg.sender;\n    }\n\n    function addContact(\n        string _firstName,\n        string _lastName,\n        string _jobTitle,\n        string _contactType,\n        string _phone\n    ) public\n    {\n        require(msg.sender == owner);\n        contacts.push(new CarrierContact(\n            _firstName,\n            _lastName,\n            _jobTitle,\n            _contactType,\n            _phone\n        ));\n    }\n\n    function getContacts() public view returns (address[]) {\n        return contacts;\n    }\n\n    function addDotInformation(CarrierDotInfo _info) public {\n        require(msg.sender == owner);\n        dot_information = _info;\n    }\n\n    function addCarrierEquipment(CarrierEquipment _equip) public {\n        require(msg.sender == owner);\n        equipment.push(_equip);\n    }\n\n}",
  "sourcePath": "/Users/jantimpe/Documents/hackathon-react/contracts/Carrier.sol",
  "compiler": {
    "name": "solc",
    "version": "0.4.19+commit.c4cbbb05.Emscripten.clang"
  },
  "schemaVersion": "2.0.0",
  "updatedAt": "2018-03-08T16:18:22.058Z"
}