{
  "contractName": "Shipment",
  "abi": [
    {
      "constant": true,
      "inputs": [],
      "name": "status",
      "outputs": [
        {
          "name": "",
          "type": "uint8"
        }
      ],
      "payable": false,
      "stateMutability": "view",
      "type": "function"
    },
    {
      "constant": true,
      "inputs": [],
      "name": "carrier",
      "outputs": [
        {
          "name": "",
          "type": "address"
        }
      ],
      "payable": false,
      "stateMutability": "view",
      "type": "function"
    },
    {
      "constant": true,
      "inputs": [],
      "name": "truck",
      "outputs": [
        {
          "name": "",
          "type": "address"
        }
      ],
      "payable": false,
      "stateMutability": "view",
      "type": "function"
    },
    {
      "constant": true,
      "inputs": [],
      "name": "owner",
      "outputs": [
        {
          "name": "",
          "type": "address"
        }
      ],
      "payable": false,
      "stateMutability": "view",
      "type": "function"
    },
    {
      "constant": true,
      "inputs": [
        {
          "name": "",
          "type": "uint256"
        }
      ],
      "name": "contents",
      "outputs": [
        {
          "name": "",
          "type": "string"
        }
      ],
      "payable": false,
      "stateMutability": "view",
      "type": "function"
    },
    {
      "inputs": [
        {
          "name": "_carrier",
          "type": "address"
        }
      ],
      "payable": false,
      "stateMutability": "nonpayable",
      "type": "constructor"
    },
    {
      "constant": false,
      "inputs": [
        {
          "name": "_item",
          "type": "string"
        }
      ],
      "name": "addShipmentItem",
      "outputs": [],
      "payable": false,
      "stateMutability": "nonpayable",
      "type": "function"
    },
    {
      "constant": false,
      "inputs": [
        {
          "name": "_truck",
          "type": "address"
        }
      ],
      "name": "deployTruck",
      "outputs": [],
      "payable": false,
      "stateMutability": "nonpayable",
      "type": "function"
    },
    {
      "constant": false,
      "inputs": [],
      "name": "changeStatusToReadyForPickup",
      "outputs": [],
      "payable": false,
      "stateMutability": "nonpayable",
      "type": "function"
    },
    {
      "constant": false,
      "inputs": [],
      "name": "changeStatusToAccepted",
      "outputs": [],
      "payable": false,
      "stateMutability": "nonpayable",
      "type": "function"
    },
    {
      "constant": false,
      "inputs": [],
      "name": "changeStatusToDispatched",
      "outputs": [],
      "payable": false,
      "stateMutability": "nonpayable",
      "type": "function"
    },
    {
      "constant": false,
      "inputs": [],
      "name": "changeStatusToPickedUp",
      "outputs": [],
      "payable": false,
      "stateMutability": "nonpayable",
      "type": "function"
    },
    {
      "constant": false,
      "inputs": [],
      "name": "changeStatusToInTransit",
      "outputs": [],
      "payable": false,
      "stateMutability": "nonpayable",
      "type": "function"
    },
    {
      "constant": false,
      "inputs": [],
      "name": "changeStatusToShipmentArrived",
      "outputs": [],
      "payable": false,
      "stateMutability": "nonpayable",
      "type": "function"
    },
    {
      "constant": false,
      "inputs": [],
      "name": "changeStatusToComplete",
      "outputs": [],
      "payable": false,
      "stateMutability": "nonpayable",
      "type": "function"
    }
  ],
  "bytecode": "0x6060604052341561000f57600080fd5b6040516020806108e68339810160405280805160008054600160a060020a03338116600160a060020a0319928316178355600180549490911693909116929092179091556003805460a060020a60ff0219169055610871925082915061007590396000f3006060604052600436106100cf5763ffffffff7c010000000000000000000000000000000000000000000000000000000060003504166306c3ebd181146100d4578063200d2ed2146101275780632510149f1461015e5780632bdc32ff146101715780632cd5101e146101a05780633964f96b146101b3578063522bf963146101c65780636af98959146101d95780637e3cafe1146101ec57806389b9c6fe1461020b5780638da5cb5b1461021e578063b5ecf91214610231578063bcd457ec146102be578063d977a85d146102d1575b600080fd5b34156100df57600080fd5b61012560046024813581810190830135806020601f820181900481020160405190810160405281815292919060208401838380828437509496506102e495505050505050565b005b341561013257600080fd5b61013a610332565b6040518082600781111561014a57fe5b60ff16815260200191505060405180910390f35b341561016957600080fd5b610125610353565b341561017c57600080fd5b6101846103ad565b604051600160a060020a03909116815260200160405180910390f35b34156101ab57600080fd5b6101256103bc565b34156101be57600080fd5b610125610413565b34156101d157600080fd5b61018461046a565b34156101e457600080fd5b610125610479565b34156101f757600080fd5b610125600160a060020a03600435166104d0565b341561021657600080fd5b61012561054f565b341561022957600080fd5b6101846105a6565b341561023c57600080fd5b6102476004356105b5565b60405160208082528190810183818151815260200191508051906020019080838360005b8381101561028357808201518382015260200161026b565b50505050905090810190601f1680156102b05780820380516001836020036101000a031916815260200191505b509250505060405180910390f35b34156102c957600080fd5b610125610670565b34156102dc57600080fd5b6101256106c5565b60005433600160a060020a039081169116146102ff57600080fd5b6002805460018101610311838261071c565b600092835260209092200182805161032d929160200190610740565b505050565b60035474010000000000000000000000000000000000000000900460ff1681565b60005433600160a060020a0390811691161461036e57600080fd5b600380546005919074ff0000000000000000000000000000000000000000191674010000000000000000000000000000000000000000835b0217905550565b600154600160a060020a031681565b60005433600160a060020a039081169116146103d757600080fd5b600380546002919074ff0000000000000000000000000000000000000000191674010000000000000000000000000000000000000000836103a6565b60005433600160a060020a0390811691161461042e57600080fd5b600380546006919074ff0000000000000000000000000000000000000000191674010000000000000000000000000000000000000000836103a6565b600354600160a060020a031681565b60005433600160a060020a0390811691161461049457600080fd5b600380546001919074ff0000000000000000000000000000000000000000191674010000000000000000000000000000000000000000836103a6565b60015433600160a060020a039081169116146104eb57600080fd5b6003805473ffffffffffffffffffffffffffffffffffffffff1916600160a060020a038316178082556002919074ff000000000000000000000000000000000000000019167401000000000000000000000000000000000000000083021790555050565b60005433600160a060020a0390811691161461056a57600080fd5b600380546007919074ff0000000000000000000000000000000000000000191674010000000000000000000000000000000000000000836103a6565b600054600160a060020a031681565b60028054829081106105c357fe5b90600052602060002090016000915090508054600181600116156101000203166002900480601f0160208091040260200160405190810160405280929190818152602001828054600181600116156101000203166002900480156106685780601f1061063d57610100808354040283529160200191610668565b820191906000526020600020905b81548152906001019060200180831161064b57829003601f168201915b505050505081565b60005433600160a060020a0390811691161461068b57600080fd5b60038054819074ff0000000000000000000000000000000000000000191674010000000000000000000000000000000000000000826103a6565b60005433600160a060020a039081169116146106e057600080fd5b600380546004919074ff0000000000000000000000000000000000000000191674010000000000000000000000000000000000000000836103a6565b81548183558181151161032d5760008381526020902061032d9181019083016107be565b828054600181600116156101000203166002900490600052602060002090601f016020900481019282601f1061078157805160ff19168380011785556107ae565b828001600101855582156107ae579182015b828111156107ae578251825591602001919060010190610793565b506107ba9291506107e4565b5090565b6107e191905b808211156107ba5760006107d882826107fe565b506001016107c4565b90565b6107e191905b808211156107ba57600081556001016107ea565b50805460018160011615610100020316600290046000825580601f106108245750610842565b601f01602090049060005260206000209081019061084291906107e4565b505600a165627a7a72305820d6d018e1517de0f0ce9416622d50327168404e73b3b1a41382c6e49f65e0bc940029",
  "source": "pragma solidity ^0.4.17;\n\n\ncontract Shipment {\n\n    address public owner;\n    address public carrier;\n    string[] public contents;\n    address public truck;\n\n\n    modifier onlyOwner() {\n        require(msg.sender == owner);\n        _;\n    } \n\n    enum Status {\n        Initiated,\n        ReadyForPickup,\n        Accepted,\n        Dispatched,\n        PickedUp,\n        InTransit,\n        ShipmentArrived,\n        Complete\n    }\n    Status public status;\n\n    function Shipment(address _carrier) public {\n        owner = msg.sender;\n        carrier = _carrier;\n        status = Status.Initiated;\n    }\n\n    function addShipmentItem(string _item) public {\n        require(msg.sender == owner);\n        contents.push(_item);\n    }\n\n\n    function deployTruck(address _truck) public {\n        require(msg.sender == carrier);\n        truck = _truck;\n        status = Status.Accepted;\n    }\n\n    function changeStatusToReadyForPickup() onlyOwner public {\n        status = Status.ReadyForPickup;\n    }\n\n    function changeStatusToAccepted() onlyOwner public { \n        status = Status.Accepted;\n    }\n\n    function changeStatusToDispatched() onlyOwner public {\n        status = Status.Dispatched;\n    }\n\n    function changeStatusToPickedUp() onlyOwner public {\n        status = Status.PickedUp;\n    }\n\n    function changeStatusToInTransit() onlyOwner public {\n        status = Status.InTransit;\n    }\n\n    function changeStatusToShipmentArrived() onlyOwner public {\n        status = Status.ShipmentArrived;\n    }\n\n    function changeStatusToComplete() onlyOwner public {\n        status = Status.Complete;\n    }\n\n\n}",
  "sourcePath": "/Users/jantimpe/Documents/hackathon-react/contracts/Shipment.sol",
  "compiler": {
    "name": "solc",
    "version": "0.4.19+commit.c4cbbb05.Emscripten.clang"
  },
  "schemaVersion": "2.0.0",
  "updatedAt": "2018-03-08T15:43:53.583Z"
}